{"abi":[{"type":"constructor","inputs":[{"name":"_poolManager","type":"address","internalType":"contract IPoolManager"},{"name":"_permit2","type":"address","internalType":"address"},{"name":"_owner","type":"address","internalType":"address"},{"name":"_treasury","type":"address","internalType":"address"}],"stateMutability":"nonpayable"},{"type":"receive","stateMutability":"payable"},{"type":"function","name":"BPS_DENOMINATOR","inputs":[],"outputs":[{"name":"","type":"uint16","internalType":"uint16"}],"stateMutability":"view"},{"type":"function","name":"MAX_FEE_BPS","inputs":[],"outputs":[{"name":"","type":"uint16","internalType":"uint16"}],"stateMutability":"view"},{"type":"function","name":"PERMIT2","inputs":[],"outputs":[{"name":"","type":"address","internalType":"contract ISignatureTransfer"}],"stateMutability":"view"},{"type":"function","name":"addMembership","inputs":[{"name":"provider","type":"address","internalType":"address"},{"name":"duration","type":"uint256","internalType":"uint256"}],"outputs":[],"stateMutability":"nonpayable"},{"type":"function","name":"afterAddLiquidity","inputs":[{"name":"sender","type":"address","internalType":"address"},{"name":"key","type":"tuple","internalType":"struct PoolKey","components":[{"name":"currency0","type":"address","internalType":"Currency"},{"name":"currency1","type":"address","internalType":"Currency"},{"name":"fee","type":"uint24","internalType":"uint24"},{"name":"tickSpacing","type":"int24","internalType":"int24"},{"name":"hooks","type":"address","internalType":"contract IHooks"}]},{"name":"params","type":"tuple","internalType":"struct ModifyLiquidityParams","components":[{"name":"tickLower","type":"int24","internalType":"int24"},{"name":"tickUpper","type":"int24","internalType":"int24"},{"name":"liquidityDelta","type":"int256","internalType":"int256"},{"name":"salt","type":"bytes32","internalType":"bytes32"}]},{"name":"delta","type":"int256","internalType":"BalanceDelta"},{"name":"feesAccrued","type":"int256","internalType":"BalanceDelta"},{"name":"hookData","type":"bytes","internalType":"bytes"}],"outputs":[{"name":"","type":"bytes4","internalType":"bytes4"},{"name":"","type":"int256","internalType":"BalanceDelta"}],"stateMutability":"nonpayable"},{"type":"function","name":"afterDonate","inputs":[{"name":"sender","type":"address","internalType":"address"},{"name":"key","type":"tuple","internalType":"struct PoolKey","components":[{"name":"currency0","type":"address","internalType":"Currency"},{"name":"currency1","type":"address","internalType":"Currency"},{"name":"fee","type":"uint24","internalType":"uint24"},{"name":"tickSpacing","type":"int24","internalType":"int24"},{"name":"hooks","type":"address","internalType":"contract IHooks"}]},{"name":"amount0","type":"uint256","internalType":"uint256"},{"name":"amount1","type":"uint256","internalType":"uint256"},{"name":"hookData","type":"bytes","internalType":"bytes"}],"outputs":[{"name":"","type":"bytes4","internalType":"bytes4"}],"stateMutability":"nonpayable"},{"type":"function","name":"afterInitialize","inputs":[{"name":"sender","type":"address","internalType":"address"},{"name":"key","type":"tuple","internalType":"struct PoolKey","components":[{"name":"currency0","type":"address","internalType":"Currency"},{"name":"currency1","type":"address","internalType":"Currency"},{"name":"fee","type":"uint24","internalType":"uint24"},{"name":"tickSpacing","type":"int24","internalType":"int24"},{"name":"hooks","type":"address","internalType":"contract IHooks"}]},{"name":"sqrtPriceX96","type":"uint160","internalType":"uint160"},{"name":"tick","type":"int24","internalType":"int24"}],"outputs":[{"name":"","type":"bytes4","internalType":"bytes4"}],"stateMutability":"nonpayable"},{"type":"function","name":"afterRemoveLiquidity","inputs":[{"name":"sender","type":"address","internalType":"address"},{"name":"key","type":"tuple","internalType":"struct PoolKey","components":[{"name":"currency0","type":"address","internalType":"Currency"},{"name":"currency1","type":"address","internalType":"Currency"},{"name":"fee","type":"uint24","internalType":"uint24"},{"name":"tickSpacing","type":"int24","internalType":"int24"},{"name":"hooks","type":"address","internalType":"contract IHooks"}]},{"name":"params","type":"tuple","internalType":"struct ModifyLiquidityParams","components":[{"name":"tickLower","type":"int24","internalType":"int24"},{"name":"tickUpper","type":"int24","internalType":"int24"},{"name":"liquidityDelta","type":"int256","internalType":"int256"},{"name":"salt","type":"bytes32","internalType":"bytes32"}]},{"name":"delta","type":"int256","internalType":"BalanceDelta"},{"name":"feesAccrued","type":"int256","internalType":"BalanceDelta"},{"name":"hookData","type":"bytes","internalType":"bytes"}],"outputs":[{"name":"","type":"bytes4","internalType":"bytes4"},{"name":"","type":"int256","internalType":"BalanceDelta"}],"stateMutability":"nonpayable"},{"type":"function","name":"afterSwap","inputs":[{"name":"sender","type":"address","internalType":"address"},{"name":"key","type":"tuple","internalType":"struct PoolKey","components":[{"name":"currency0","type":"address","internalType":"Currency"},{"name":"currency1","type":"address","internalType":"Currency"},{"name":"fee","type":"uint24","internalType":"uint24"},{"name":"tickSpacing","type":"int24","internalType":"int24"},{"name":"hooks","type":"address","internalType":"contract IHooks"}]},{"name":"params","type":"tuple","internalType":"struct SwapParams","components":[{"name":"zeroForOne","type":"bool","internalType":"bool"},{"name":"amountSpecified","type":"int256","internalType":"int256"},{"name":"sqrtPriceLimitX96","type":"uint160","internalType":"uint160"}]},{"name":"delta","type":"int256","internalType":"BalanceDelta"},{"name":"hookData","type":"bytes","internalType":"bytes"}],"outputs":[{"name":"","type":"bytes4","internalType":"bytes4"},{"name":"","type":"int128","internalType":"int128"}],"stateMutability":"nonpayable"},{"type":"function","name":"beforeAddLiquidity","inputs":[{"name":"sender","type":"address","internalType":"address"},{"name":"key","type":"tuple","internalType":"struct PoolKey","components":[{"name":"currency0","type":"address","internalType":"Currency"},{"name":"currency1","type":"address","internalType":"Currency"},{"name":"fee","type":"uint24","internalType":"uint24"},{"name":"tickSpacing","type":"int24","internalType":"int24"},{"name":"hooks","type":"address","internalType":"contract IHooks"}]},{"name":"params","type":"tuple","internalType":"struct ModifyLiquidityParams","components":[{"name":"tickLower","type":"int24","internalType":"int24"},{"name":"tickUpper","type":"int24","internalType":"int24"},{"name":"liquidityDelta","type":"int256","internalType":"int256"},{"name":"salt","type":"bytes32","internalType":"bytes32"}]},{"name":"hookData","type":"bytes","internalType":"bytes"}],"outputs":[{"name":"","type":"bytes4","internalType":"bytes4"}],"stateMutability":"nonpayable"},{"type":"function","name":"beforeDonate","inputs":[{"name":"sender","type":"address","internalType":"address"},{"name":"key","type":"tuple","internalType":"struct PoolKey","components":[{"name":"currency0","type":"address","internalType":"Currency"},{"name":"currency1","type":"address","internalType":"Currency"},{"name":"fee","type":"uint24","internalType":"uint24"},{"name":"tickSpacing","type":"int24","internalType":"int24"},{"name":"hooks","type":"address","internalType":"contract IHooks"}]},{"name":"amount0","type":"uint256","internalType":"uint256"},{"name":"amount1","type":"uint256","internalType":"uint256"},{"name":"hookData","type":"bytes","internalType":"bytes"}],"outputs":[{"name":"","type":"bytes4","internalType":"bytes4"}],"stateMutability":"nonpayable"},{"type":"function","name":"beforeInitialize","inputs":[{"name":"sender","type":"address","internalType":"address"},{"name":"key","type":"tuple","internalType":"struct PoolKey","components":[{"name":"currency0","type":"address","internalType":"Currency"},{"name":"currency1","type":"address","internalType":"Currency"},{"name":"fee","type":"uint24","internalType":"uint24"},{"name":"tickSpacing","type":"int24","internalType":"int24"},{"name":"hooks","type":"address","internalType":"contract IHooks"}]},{"name":"sqrtPriceX96","type":"uint160","internalType":"uint160"}],"outputs":[{"name":"","type":"bytes4","internalType":"bytes4"}],"stateMutability":"nonpayable"},{"type":"function","name":"beforeRemoveLiquidity","inputs":[{"name":"sender","type":"address","internalType":"address"},{"name":"key","type":"tuple","internalType":"struct PoolKey","components":[{"name":"currency0","type":"address","internalType":"Currency"},{"name":"currency1","type":"address","internalType":"Currency"},{"name":"fee","type":"uint24","internalType":"uint24"},{"name":"tickSpacing","type":"int24","internalType":"int24"},{"name":"hooks","type":"address","internalType":"contract IHooks"}]},{"name":"params","type":"tuple","internalType":"struct ModifyLiquidityParams","components":[{"name":"tickLower","type":"int24","internalType":"int24"},{"name":"tickUpper","type":"int24","internalType":"int24"},{"name":"liquidityDelta","type":"int256","internalType":"int256"},{"name":"salt","type":"bytes32","internalType":"bytes32"}]},{"name":"hookData","type":"bytes","internalType":"bytes"}],"outputs":[{"name":"","type":"bytes4","internalType":"bytes4"}],"stateMutability":"nonpayable"},{"type":"function","name":"beforeSwap","inputs":[{"name":"sender","type":"address","internalType":"address"},{"name":"key","type":"tuple","internalType":"struct PoolKey","components":[{"name":"currency0","type":"address","internalType":"Currency"},{"name":"currency1","type":"address","internalType":"Currency"},{"name":"fee","type":"uint24","internalType":"uint24"},{"name":"tickSpacing","type":"int24","internalType":"int24"},{"name":"hooks","type":"address","internalType":"contract IHooks"}]},{"name":"params","type":"tuple","internalType":"struct SwapParams","components":[{"name":"zeroForOne","type":"bool","internalType":"bool"},{"name":"amountSpecified","type":"int256","internalType":"int256"},{"name":"sqrtPriceLimitX96","type":"uint160","internalType":"uint160"}]},{"name":"hookData","type":"bytes","internalType":"bytes"}],"outputs":[{"name":"","type":"bytes4","internalType":"bytes4"},{"name":"","type":"int256","internalType":"BeforeSwapDelta"},{"name":"","type":"uint24","internalType":"uint24"}],"stateMutability":"nonpayable"},{"type":"function","name":"botKillCount","inputs":[{"name":"","type":"address","internalType":"address"}],"outputs":[{"name":"","type":"uint256","internalType":"uint256"}],"stateMutability":"view"},{"type":"function","name":"dualSidedFeeBps","inputs":[],"outputs":[{"name":"","type":"uint16","internalType":"uint16"}],"stateMutability":"view"},{"type":"function","name":"getHookPermissions","inputs":[],"outputs":[{"name":"","type":"tuple","internalType":"struct Hooks.Permissions","components":[{"name":"beforeInitialize","type":"bool","internalType":"bool"},{"name":"afterInitialize","type":"bool","internalType":"bool"},{"name":"beforeAddLiquidity","type":"bool","internalType":"bool"},{"name":"afterAddLiquidity","type":"bool","internalType":"bool"},{"name":"beforeRemoveLiquidity","type":"bool","internalType":"bool"},{"name":"afterRemoveLiquidity","type":"bool","internalType":"bool"},{"name":"beforeSwap","type":"bool","internalType":"bool"},{"name":"afterSwap","type":"bool","internalType":"bool"},{"name":"beforeDonate","type":"bool","internalType":"bool"},{"name":"afterDonate","type":"bool","internalType":"bool"},{"name":"beforeSwapReturnDelta","type":"bool","internalType":"bool"},{"name":"afterSwapReturnDelta","type":"bool","internalType":"bool"},{"name":"afterAddLiquidityReturnDelta","type":"bool","internalType":"bool"},{"name":"afterRemoveLiquidityReturnDelta","type":"bool","internalType":"bool"}]}],"stateMutability":"pure"},{"type":"function","name":"isMember","inputs":[{"name":"provider","type":"address","internalType":"address"}],"outputs":[{"name":"","type":"bool","internalType":"bool"}],"stateMutability":"view"},{"type":"function","name":"isPermitUsed","inputs":[{"name":"provider","type":"address","internalType":"address"},{"name":"nonce","type":"uint256","internalType":"uint256"}],"outputs":[{"name":"","type":"bool","internalType":"bool"}],"stateMutability":"view"},{"type":"function","name":"lifetimeEarnings","inputs":[{"name":"","type":"address","internalType":"address"},{"name":"","type":"address","internalType":"Currency"}],"outputs":[{"name":"","type":"uint256","internalType":"uint256"}],"stateMutability":"view"},{"type":"function","name":"membershipExpiry","inputs":[{"name":"","type":"address","internalType":"address"}],"outputs":[{"name":"","type":"uint256","internalType":"uint256"}],"stateMutability":"view"},{"type":"function","name":"owner","inputs":[],"outputs":[{"name":"","type":"address","internalType":"address"}],"stateMutability":"view"},{"type":"function","name":"permit2","inputs":[],"outputs":[{"name":"","type":"address","internalType":"address"}],"stateMutability":"view"},{"type":"function","name":"poolManager","inputs":[],"outputs":[{"name":"","type":"address","internalType":"contract IPoolManager"}],"stateMutability":"view"},{"type":"function","name":"protocolFees","inputs":[{"name":"","type":"address","internalType":"Currency"}],"outputs":[{"name":"","type":"uint256","internalType":"uint256"}],"stateMutability":"view"},{"type":"function","name":"revokeMembership","inputs":[{"name":"provider","type":"address","internalType":"address"}],"outputs":[],"stateMutability":"nonpayable"},{"type":"function","name":"setFees","inputs":[{"name":"newSingleSidedFeeBps","type":"uint16","internalType":"uint16"},{"name":"newDualSidedFeeBps","type":"uint16","internalType":"uint16"}],"outputs":[],"stateMutability":"nonpayable"},{"type":"function","name":"setTreasury","inputs":[{"name":"newTreasury","type":"address","internalType":"address"}],"outputs":[],"stateMutability":"nonpayable"},{"type":"function","name":"singleSidedFeeBps","inputs":[],"outputs":[{"name":"","type":"uint16","internalType":"uint16"}],"stateMutability":"view"},{"type":"function","name":"transferOwnership","inputs":[{"name":"newOwner","type":"address","internalType":"address"}],"outputs":[],"stateMutability":"nonpayable"},{"type":"function","name":"treasury","inputs":[],"outputs":[{"name":"","type":"address","internalType":"address"}],"stateMutability":"view"},{"type":"function","name":"withdrawFees","inputs":[{"name":"currency","type":"address","internalType":"Currency"},{"name":"amount","type":"uint256","internalType":"uint256"}],"outputs":[],"stateMutability":"nonpayable"},{"type":"event","name":"ExorcismTriggered","inputs":[{"name":"poolId","type":"bytes32","indexed":true,"internalType":"PoolId"},{"name":"attacker","type":"address","indexed":true,"internalType":"address"}],"anonymous":false},{"type":"event","name":"FeesUpdated","inputs":[{"name":"singleSidedFeeBps","type":"uint16","indexed":false,"internalType":"uint16"},{"name":"dualSidedFeeBps","type":"uint16","indexed":false,"internalType":"uint16"}],"anonymous":false},{"type":"event","name":"FeesWithdrawn","inputs":[{"name":"currency","type":"address","indexed":true,"internalType":"Currency"},{"name":"to","type":"address","indexed":true,"internalType":"address"},{"name":"amount","type":"uint256","indexed":false,"internalType":"uint256"}],"anonymous":false},{"type":"event","name":"GhostPermitRegistered","inputs":[{"name":"provider","type":"address","indexed":true,"internalType":"address"},{"name":"poolId","type":"bytes32","indexed":true,"internalType":"PoolId"},{"name":"amount","type":"uint256","indexed":false,"internalType":"uint256"},{"name":"deadline","type":"uint256","indexed":false,"internalType":"uint256"}],"anonymous":false},{"type":"event","name":"LiquidityMaterialized","inputs":[{"name":"provider","type":"address","indexed":true,"internalType":"address"},{"name":"poolId","type":"bytes32","indexed":true,"internalType":"PoolId"},{"name":"amount","type":"uint256","indexed":false,"internalType":"uint256"},{"name":"feesEarned","type":"uint256","indexed":false,"internalType":"uint256"}],"anonymous":false},{"type":"event","name":"LiquiditySettled","inputs":[{"name":"provider","type":"address","indexed":true,"internalType":"address"},{"name":"poolId","type":"bytes32","indexed":true,"internalType":"PoolId"},{"name":"amount","type":"uint256","indexed":false,"internalType":"uint256"},{"name":"profit","type":"uint256","indexed":false,"internalType":"uint256"}],"anonymous":false},{"type":"event","name":"MembershipRevoked","inputs":[{"name":"provider","type":"address","indexed":true,"internalType":"address"}],"anonymous":false},{"type":"event","name":"MembershipUpdated","inputs":[{"name":"provider","type":"address","indexed":true,"internalType":"address"},{"name":"expiry","type":"uint256","indexed":false,"internalType":"uint256"}],"anonymous":false},{"type":"event","name":"OwnershipTransferred","inputs":[{"name":"oldOwner","type":"address","indexed":true,"internalType":"address"},{"name":"newOwner","type":"address","indexed":true,"internalType":"address"}],"anonymous":false},{"type":"event","name":"TreasuryUpdated","inputs":[{"name":"oldTreasury","type":"address","indexed":true,"internalType":"address"},{"name":"newTreasury","type":"address","indexed":true,"internalType":"address"}],"anonymous":false},{"type":"error","name":"AtomicGuardViolation","inputs":[{"name":"initialBalance","type":"uint256","internalType":"uint256"},{"name":"finalBalance","type":"uint256","internalType":"uint256"}]},{"type":"error","name":"FeeTooHigh","inputs":[]},{"type":"error","name":"HookNotImplemented","inputs":[]},{"type":"error","name":"InsufficientFees","inputs":[]},{"type":"error","name":"InsufficientLiquidity","inputs":[]},{"type":"error","name":"InvalidSignature","inputs":[]},{"type":"error","name":"MEVDetected","inputs":[]},{"type":"error","name":"NotOwner","inputs":[]},{"type":"error","name":"NotPoolManager","inputs":[]},{"type":"error","name":"OnlyPoolManager","inputs":[]},{"type":"error","name":"PermitExpired","inputs":[{"name":"deadline","type":"uint256","internalType":"uint256"},{"name":"currentTime","type":"uint256","internalType":"uint256"}]},{"type":"error","name":"SolvencyViolation","inputs":[]},{"type":"error","name":"WitnessMismatch","inputs":[{"name":"expected","type":"bytes32","internalType":"PoolId"},{"name":"actual","type":"bytes32","internalType":"PoolId"}]},{"type":"error","name":"ZeroAddress","inputs":[]}],"bytecode":{"object":"0x60c06040523461036857604051601f61439138819003918201601f19168301916001600160401b0383118484101761036c57808492608094604052833981010312610368578051906001600160a01b038216820361036857610063602082016103a0565b9061007c6060610075604084016103a0565b92016103a0565b926080525f6101a061008c610380565b8281528260208201528260408201528260608201528260808201528260a08201528260c08201528260e0820152826101008201528261012082015282610140820152826101608201528261018082015201525f6101a06100ea610380565b600181528260208201528260408201528260608201528260808201528260a0820152600160c0820152600160e082015282610100820152826101208201526001610140820152826101608201528261018082015201526120003016151560011480159061035b575b801561034e575b8015610341575b8015610334575b8015610327575b8015610317575b8015610307575b80156102fb575b80156102ef575b80156102df575b80156102d3575b80156102c7575b80156102bb575b6102a8575f80546001600160a01b0393841660a0526001600160c01b03191660209290921b600160201b600160c01b0316919091176303e807d0179055600180546001600160a01b03191692909116919091179055604051613fdc90816103b58239608051818181610611015281816107a60152818161084001528181610bcc01528181610e2901528181611063015281816112a90152818161134301528181611aee015281816122fc015281816123cf01528181612456015281816124a00152818161250e015281816125bc015281816126430152818161268d015281816126fa01526130af015260a05181818161116f01528181612104015261222e0152f35b630732d7b560e51b5f523060045260245ffd5b506001301615156101a6565b5060023016151561019f565b50600430161515610198565b5060083016151560011415610191565b5060103016151561018a565b50602030161515610183565b506040301615156001141561017c565b5060803016151560011415610175565b506101003016151561016e565b5061020030161515610167565b5061040030161515610160565b5061080030161515610159565b5061100030161515610152565b5f80fd5b634e487b7160e01b5f52604160045260245ffd5b604051906101c082016001600160401b0381118382101761036c57604052565b51906001600160a01b03821682036103685756fe60c080604052600436101561001c575b50361561001a575f80fd5b005b5f3560e01c9081630b94a5a9146113915750806312261ee71461112557806321d0ee7014611319578063259982e514611319578063575e24b4146111e457806361d027b3146111935780636afdd850146111255780636c2bbe7e14610dfd5780636c671fcb146110b15780636fe7e6eb14610fd75780638da5cb5b14610f855780639ef833d414610e775780639f063efc14610dfd578063a230c52414610d8f578063ad3b1b4714610c2d578063b47b2fb114610b05578063b6a8b0fa146105e6578063bd9a4ab214610ac7578063c4e833ce14610940578063c5ae086a1461089e578063d55be8c614610864578063dc4c90d3146107f6578063dc98354e14610724578063dcf844a7146106c1578063e1a4521814610687578063e1b4af69146105e6578063ea4bbaf414610583578063f050e4d3146104a1578063f0f44260146103c6578063f2fde38b14610293578063f47fe441146102305763fe91a61714610188575f61000f565b3461022c5760407ffffffffffffffffffffffffffffffffffffffffffffffffffffffffffffffffc36011261022c576101bf6113cf565b6024359073ffffffffffffffffffffffffffffffffffffffff8216820361022c5773ffffffffffffffffffffffffffffffffffffffff165f52600660205273ffffffffffffffffffffffffffffffffffffffff60405f2091165f52602052602060405f2054604051908152f35b5f80fd5b3461022c5760207ffffffffffffffffffffffffffffffffffffffffffffffffffffffffffffffffc36011261022c5773ffffffffffffffffffffffffffffffffffffffff61027c6113cf565b165f526007602052602060405f2054604051908152f35b3461022c5760207ffffffffffffffffffffffffffffffffffffffffffffffffffffffffffffffffc36011261022c576102ca6113cf565b5f5473ffffffffffffffffffffffffffffffffffffffff8160201c169081330361039e5773ffffffffffffffffffffffffffffffffffffffff83169283156103765777ffffffffffffffffffffffffffffffffffffffff000000007fffffffffffffffff0000000000000000000000000000000000000000ffffffff9160201b169116175f557f8be0079c531659141344cd1fd0a4f28419497f9722a3daafe3b4186f6b6457e05f80a3005b7fd92e233d000000000000000000000000000000000000000000000000000000005f5260045ffd5b7f30cd7471000000000000000000000000000000000000000000000000000000005f5260045ffd5b3461022c5760207ffffffffffffffffffffffffffffffffffffffffffffffffffffffffffffffffc36011261022c576103fd6113cf565b73ffffffffffffffffffffffffffffffffffffffff5f5460201c16330361039e5773ffffffffffffffffffffffffffffffffffffffff1680156103765773ffffffffffffffffffffffffffffffffffffffff600154827fffffffffffffffffffffffff0000000000000000000000000000000000000000821617600155167f4ab5be82436d353e61ca18726e984e561f5c1cc7c6d38b29d2553c790434705a5f80a3005b3461022c5760407ffffffffffffffffffffffffffffffffffffffffffffffffffffffffffffffffc36011261022c576104d86113cf565b6024359073ffffffffffffffffffffffffffffffffffffffff5f5460201c16330361039e5773ffffffffffffffffffffffffffffffffffffffff169081156103765760207f7ef8801322fe1034e2425c5a9f7d10c5d3a61e1e44e51dd26d7c7b063ca440cc91835f526002825260405f2054904282115f146105735761055d916117bc565b835f52600282528060405f2055604051908152a2005b61057e9150426117bc565b61055d565b3461022c5760207ffffffffffffffffffffffffffffffffffffffffffffffffffffffffffffffffc36011261022c5773ffffffffffffffffffffffffffffffffffffffff6105cf6113cf565b165f526002602052602060405f2054604051908152f35b3461022c576105f43661161e565b50505050505073ffffffffffffffffffffffffffffffffffffffff7f000000000000000000000000000000000000000000000000000000000000000016330361065f577f0a85dc29000000000000000000000000000000000000000000000000000000005f5260045ffd5b7fae18210a000000000000000000000000000000000000000000000000000000005f5260045ffd5b3461022c575f7ffffffffffffffffffffffffffffffffffffffffffffffffffffffffffffffffc36011261022c5760206040516127108152f35b3461022c5760207ffffffffffffffffffffffffffffffffffffffffffffffffffffffffffffffffc36011261022c5773ffffffffffffffffffffffffffffffffffffffff61070d6113cf565b165f526005602052602060405f2054604051908152f35b3461022c5760e07ffffffffffffffffffffffffffffffffffffffffffffffffffffffffffffffffc36011261022c5761075b6113cf565b5060a07fffffffffffffffffffffffffffffffffffffffffffffffffffffffffffffffdc36011261022c5761078e6115dd565b5073ffffffffffffffffffffffffffffffffffffffff7f000000000000000000000000000000000000000000000000000000000000000016330361065f5760206040517fdc98354e000000000000000000000000000000000000000000000000000000008152f35b3461022c575f7ffffffffffffffffffffffffffffffffffffffffffffffffffffffffffffffffc36011261022c57602060405173ffffffffffffffffffffffffffffffffffffffff7f0000000000000000000000000000000000000000000000000000000000000000168152f35b3461022c575f7ffffffffffffffffffffffffffffffffffffffffffffffffffffffffffffffffc36011261022c5760206040516113888152f35b3461022c5760207ffffffffffffffffffffffffffffffffffffffffffffffffffffffffffffffffc36011261022c576108d56113cf565b73ffffffffffffffffffffffffffffffffffffffff5f5460201c16330361039e5773ffffffffffffffffffffffffffffffffffffffff16805f5260026020525f60408120557fdb4f86f4e3926c467d3434a00cc562d038163012ae34dcc94fca7c85246f1bbe5f80a2005b3461022c575f7ffffffffffffffffffffffffffffffffffffffffffffffffffffffffffffffffc36011261022c575f6101a060405161097e816116f9565b8281528260208201528260408201528260608201528260808201528260a08201528260c08201528260e0820152826101008201528261012082015282610140820152826101608201528261018082015201526101c060206040516109e1816116f9565b60018152818101905f8252604081015f8152606082015f8152608083015f815260a084015f815260c085016001815260e0860190600182526101008701925f84526101208801945f8652610140890196600188526101608a01985f8a526101a06101808c019b5f8d52019b5f8d526040519d8e916001835251151591015251151560408d015251151560608c015251151560808b015251151560a08a015251151560c089015251151560e08801525115156101008701525115156101208601525115156101408501525115156101608401525115156101808301525115156101a0820152f35b3461022c575f7ffffffffffffffffffffffffffffffffffffffffffffffffffffffffffffffffc36011261022c57602061ffff5f5416604051908152f35b3461022c576101607ffffffffffffffffffffffffffffffffffffffffffffffffffffffffffffffffc36011261022c57610b3d6113cf565b5060a07fffffffffffffffffffffffffffffffffffffffffffffffffffffffffffffffdc36011261022c5760607fffffffffffffffffffffffffffffffffffffffffffffffffffffffffffffff3c36011261022c576101443567ffffffffffffffff811161022c57610bb3903690600401611413565b505073ffffffffffffffffffffffffffffffffffffffff7f000000000000000000000000000000000000000000000000000000000000000016330361065f576040610bfc613073565b7fffffffff00000000000000000000000000000000000000000000000000000000835192168252600f0b6020820152f35b3461022c5760407ffffffffffffffffffffffffffffffffffffffffffffffffffffffffffffffffc36011261022c57610c646113cf565b6024359073ffffffffffffffffffffffffffffffffffffffff5f5460201c16330361039e5773ffffffffffffffffffffffffffffffffffffffff60015416156103765773ffffffffffffffffffffffffffffffffffffffff811690815f52600560205260405f20549280155f14610d895750825b8311610d615782610d1b91835f52600560205260405f20610cfa8382546116bf565b905573ffffffffffffffffffffffffffffffffffffffff6001541690612bfe565b7f5e110f8bc8a20b65dcc87f224bdf1cc039346e267118bae2739847f07321ffa8602073ffffffffffffffffffffffffffffffffffffffff6001541693604051908152a3005b7f8d53e553000000000000000000000000000000000000000000000000000000005f5260045ffd5b92610cd8565b3461022c5760207ffffffffffffffffffffffffffffffffffffffffffffffffffffffffffffffffc36011261022c576020610df3610dcb6113cf565b73ffffffffffffffffffffffffffffffffffffffff165f52600260205260405f205442111590565b6040519015158152f35b3461022c57610e0b3661150c565b5050505050505073ffffffffffffffffffffffffffffffffffffffff7f000000000000000000000000000000000000000000000000000000000000000016330361065f577f0a85dc29000000000000000000000000000000000000000000000000000000005f5260045ffd5b3461022c5760407ffffffffffffffffffffffffffffffffffffffffffffffffffffffffffffffffc36011261022c5760043561ffff811680910361022c5760243561ffff81169182820361022c575f549273ffffffffffffffffffffffffffffffffffffffff8460201c16330361039e576113888211610f5d576113888111610f5d577f2ac80c14c28700f7b5e36f947d572149fe2e3947bac32c3a8c098f3e03722c1193827fffffffffffffffffffffffffffffffffffffffffffffffffffffffff0000000063ffff000060409660101b16921617175f5582519182526020820152a1005b7fcd4e6167000000000000000000000000000000000000000000000000000000005f5260045ffd5b3461022c575f7ffffffffffffffffffffffffffffffffffffffffffffffffffffffffffffffffc36011261022c57602073ffffffffffffffffffffffffffffffffffffffff5f54821c16604051908152f35b3461022c576101007ffffffffffffffffffffffffffffffffffffffffffffffffffffffffffffffffc36011261022c5761100f6113cf565b5060a07fffffffffffffffffffffffffffffffffffffffffffffffffffffffffffffffdc36011261022c576110426115dd565b5061104b611600565b5073ffffffffffffffffffffffffffffffffffffffff7f000000000000000000000000000000000000000000000000000000000000000016330361065f577f0a85dc29000000000000000000000000000000000000000000000000000000005f5260045ffd5b3461022c5760407ffffffffffffffffffffffffffffffffffffffffffffffffffffffffffffffffc36011261022c5773ffffffffffffffffffffffffffffffffffffffff6110fd6113cf565b165f52600360205260405f206024355f52602052602060ff60405f2054166040519015158152f35b3461022c575f7ffffffffffffffffffffffffffffffffffffffffffffffffffffffffffffffffc36011261022c57602060405173ffffffffffffffffffffffffffffffffffffffff7f0000000000000000000000000000000000000000000000000000000000000000168152f35b3461022c575f7ffffffffffffffffffffffffffffffffffffffffffffffffffffffffffffffffc36011261022c57602073ffffffffffffffffffffffffffffffffffffffff60015416604051908152f35b3461022c576101407ffffffffffffffffffffffffffffffffffffffffffffffffffffffffffffffffc36011261022c5761121c6113cf565b60a07fffffffffffffffffffffffffffffffffffffffffffffffffffffffffffffffdc36011261022c5760607fffffffffffffffffffffffffffffffffffffffffffffffffffffffffffffff3c36011261022c576101243567ffffffffffffffff811161022c57611291903690600401611413565b9173ffffffffffffffffffffffffffffffffffffffff7f000000000000000000000000000000000000000000000000000000000000000016330361065f5760609262ffffff926112e092611853565b907fffffffff00000000000000000000000000000000000000000000000000000000604094939451941684526020840152166040820152f35b3461022c5761132736611441565b505050505073ffffffffffffffffffffffffffffffffffffffff7f000000000000000000000000000000000000000000000000000000000000000016330361065f577f0a85dc29000000000000000000000000000000000000000000000000000000005f5260045ffd5b3461022c575f7ffffffffffffffffffffffffffffffffffffffffffffffffffffffffffffffffc36011261022c5760209061ffff5f5460101c168152f35b6004359073ffffffffffffffffffffffffffffffffffffffff8216820361022c57565b359073ffffffffffffffffffffffffffffffffffffffff8216820361022c57565b9181601f8401121561022c5782359167ffffffffffffffff831161022c576020838186019501011161022c57565b906101607ffffffffffffffffffffffffffffffffffffffffffffffffffffffffffffffffc83011261022c5760043573ffffffffffffffffffffffffffffffffffffffff8116810361022c579160a07fffffffffffffffffffffffffffffffffffffffffffffffffffffffffffffffdc82011261022c5760249160807fffffffffffffffffffffffffffffffffffffffffffffffffffffffffffffff3c83011261022c5760c491610144359067ffffffffffffffff821161022c5761150891600401611413565b9091565b906101a07ffffffffffffffffffffffffffffffffffffffffffffffffffffffffffffffffc83011261022c5760043573ffffffffffffffffffffffffffffffffffffffff8116810361022c579160a07fffffffffffffffffffffffffffffffffffffffffffffffffffffffffffffffdc82011261022c5760249160807fffffffffffffffffffffffffffffffffffffffffffffffffffffffffffffff3c83011261022c5760c49161014435916101643591610184359067ffffffffffffffff821161022c5761150891600401611413565b60c4359073ffffffffffffffffffffffffffffffffffffffff8216820361022c57565b60e435908160020b820361022c57565b35908160020b820361022c57565b6101207ffffffffffffffffffffffffffffffffffffffffffffffffffffffffffffffffc82011261022c5760043573ffffffffffffffffffffffffffffffffffffffff8116810361022c579160a07fffffffffffffffffffffffffffffffffffffffffffffffffffffffffffffffdc83011261022c5760249160c4359160e43591610104359067ffffffffffffffff821161022c5761150891600401611413565b919082039182116116cc57565b7f4e487b71000000000000000000000000000000000000000000000000000000005f52601160045260245ffd5b6101c0810190811067ffffffffffffffff82111761171657604052565b7f4e487b71000000000000000000000000000000000000000000000000000000005f52604160045260245ffd5b6040810190811067ffffffffffffffff82111761171657604052565b6080810190811067ffffffffffffffff82111761171657604052565b90601f7fffffffffffffffffffffffffffffffffffffffffffffffffffffffffffffffe0910116810190811067ffffffffffffffff82111761171657604052565b919082018092116116cc57565b359062ffffff8216820361022c57565b91908260a091031261022c5760405160a0810181811067ffffffffffffffff82111761171657604052608061184e818395611813816113f2565b8552611821602082016113f2565b6020860152611832604082016117c9565b604086015261184360608201611610565b6060860152016113f2565b910152565b929190928115612bd35760a061186a3660246117d9565b206080526080515f52600860205260405f20805443145f14612b87576001810160ff81541660ff81146116cc57600160ff9101167fffffffffffffffffffffffffffffffffffffffffffffffffffffffffffffff0082541617815554600360ff821610159081612b60575b50612afa576001905b01907fffffffffffffffffffffff0000000000000000000000000000000000000000ff74ffffffffffffffffffffffffffffffffffffffff0083549260081b169116179055820160608382031261022c57823567ffffffffffffffff811161022c5783019080601f8301121561022c5781356119598161377f565b92611967604051948561177b565b818452602060e081860193028201019083821161022c57602001915b818310612a6957505050602084013567ffffffffffffffff811161022c5784019381601f8601121561022c578435946119bb8661377f565b956119c9604051978861177b565b80875260208088019160051b8301019184831161022c5760208101915b838310612a02575050505060408101359067ffffffffffffffff821161022c570181601f8201121561022c57803590611a1e8261377f565b92611a2c604051948561177b565b82845260208085019360061b8301019181831161022c57602001925b8284106129ca5750506080515f908152600860205260409020805460019091015460ff1692504314905060c435801515900361022c57604051602081019060805182526006604082015260408152611aa160608261177b565b51902095604051967f1e2eaeaf000000000000000000000000000000000000000000000000000000008852600488015260208760248173ffffffffffffffffffffffffffffffffffffffff7f0000000000000000000000000000000000000000000000000000000000000000165afa968715612578575f97612996575b505f73ffffffffffffffffffffffffffffffffffffffff6024351660243514159573ffffffffffffffffffffffffffffffffffffffff604435166044351415915f60a052602060a0525b815181101561296457611b7b8183613797565b51608081015142118015612927575b8015612910575b80156128e1575b8015612895575b8015612847575b61283e57611bea60408201518c73ffffffffffffffffffffffffffffffffffffffff60a051850151169160c4359160a01c60020b611be53660246117d9565b61393e565b90916fffffffffffffffffffffffffffffffff8216156128325773ffffffffffffffffffffffffffffffffffffffff8451165f52600360a0515260405f2060a08501515f5260a0515260405f2060017fffffffffffffffffffffffffffffffffffffffffffffffffffffffffffffff008254161790556080515f52600960a0515260405f2073ffffffffffffffffffffffffffffffffffffffff8551169080546801000000000000000081101561171657611caa91600182018155612e33565b73ffffffffffffffffffffffffffffffffffffffff829392549160031b92831b921b191617905560408401518c61022c57611ce6602435613abc565b908861022c57611cf7604435613abc565b73ffffffffffffffffffffffffffffffffffffffff60a051880151169260c088015115155f1461282c5760015b604051938461012081011067ffffffffffffffff6101208701111761171657610120850160405284526fffffffffffffffffffffffffffffffff871660a0518501528560020b604085015260608401938860020b85526080810192835260a0810193845260c0810195865260e081019360028310156127ff5773ffffffffffffffffffffffffffffffffffffffff936004938652610100830196600188526080515f528460a051528c868060405f20925116165f5260a0515260405f20938051855560018501916fffffffffffffffffffffffffffffffff60a051830151167fffffffffffffffffffff000000000000000000000000000000000000000000006040855494015160801b72ffffff0000000000000000000000000000000016925160981b75ffffff000000000000000000000000000000000000001693161717179055516002830155516003820155019351167fffffffffffffffffffffffff00000000000000000000000000000000000000008454161783555160028110156127ff57825491517fffffffffffffffffffff0000ffffffffffffffffffffffffffffffffffffffff90921660a09190911b74ff0000000000000000000000000000000000000000161790151560a81b75ff0000000000000000000000000000000000000000001617905588806127f4575b61279d575b611f258589613797565b5191611f31868d613797565b519273ffffffffffffffffffffffffffffffffffffffff60a0518701511693604087015160405195611f6287611743565b865260a05186015260a0870151946080880151604051916060830183811067ffffffffffffffff82111761171657604052825260a05182019687526040820190815260408901519360405194611fb786611743565b30865260a05186015273ffffffffffffffffffffffffffffffffffffffff8a51169373ffffffffffffffffffffffffffffffffffffffff81519160a0510151166040519060a0518201927f033a01b3168bc8e9239b26883274ea3dcfdfe8d376f02d069457523e9c8363da8452604083015260608201526060815261203d60808261177b565b5190209460a0612050604051918261177b565b606a81527f5769746e65737344617461207769746e65737329546f6b656e5065726d69737360a0518201527f696f6e73286164647265737320746f6b656e2c75696e7432353620616d6f756e60408201527f74295769746e65737344617461286279746573333220706f6f6c49642c61646460608201527f7265737320686f6f6b2900000000000000000000000000000000000000000000608082015273ffffffffffffffffffffffffffffffffffffffff7f0000000000000000000000000000000000000000000000000000000000000000163b1561022c575f96612191966121c56121e394612214976040519e8f9b8c9b7f137c29fe000000000000000000000000000000000000000000000000000000008d5260048d0190516020809173ffffffffffffffffffffffffffffffffffffffff81511684520151910152565b5160448b01525160648a0152805173ffffffffffffffffffffffffffffffffffffffff1660848a01526020015160a4890152565b60c487015260e4860152610140610104860152610144850190612ec5565b907ffffffffffffffffffffffffffffffffffffffffffffffffffffffffffffffffc84830301610124850152612ec5565b03818373ffffffffffffffffffffffffffffffffffffffff7f0000000000000000000000000000000000000000000000000000000000000000165af1908115612578576122e2946040946fffffffffffffffffffffffffffffffff9361278d575b508451936122828561175f565b60020b845260020b60a05184015216828201525f60608201528151906122aa60a0518361177b565b5f8252825193849283927f5a6bcfda000000000000000000000000000000000000000000000000000000008452602460048501612f08565b03815f73ffffffffffffffffffffffffffffffffffffffff7f0000000000000000000000000000000000000000000000000000000000000000165af1908115612578575f9161275e575b505f8160801d600f0b12612593575b5f81600f0b126123a5575b509081604073ffffffffffffffffffffffffffffffffffffffff6001945116910151906040519182525f60a0518301527f046823ed69fa2f91943f59492591d758bb8604978b613e0de6ef469251d6b268604060805193a35b01611b68565b6123b491929450600f0b612fbb565b600f0b9273ffffffffffffffffffffffffffffffffffffffff7f0000000000000000000000000000000000000000000000000000000000000000163b1561022c576040517fa584119400000000000000000000000000000000000000000000000000000000815273ffffffffffffffffffffffffffffffffffffffff6044351660048201525f816024818373ffffffffffffffffffffffffffffffffffffffff7f0000000000000000000000000000000000000000000000000000000000000000165af1801561257857612583575b506124c85f9473ffffffffffffffffffffffffffffffffffffffff7f000000000000000000000000000000000000000000000000000000000000000016604435612bfe565b604051917f11da60b400000000000000000000000000000000000000000000000000000000835260a051836004815f73ffffffffffffffffffffffffffffffffffffffff7f0000000000000000000000000000000000000000000000000000000000000000165af192831561257857600193612547575b509091612346565b61256a9060a0513d60a05111612571575b612562818361177b565b810190612fea565b505f61253f565b503d612558565b6040513d5f823e3d90fd5b5f61258d9161177b565b5f612483565b98506125a18960801d612fbb565b600f0b9873ffffffffffffffffffffffffffffffffffffffff7f0000000000000000000000000000000000000000000000000000000000000000163b1561022c576040517fa584119400000000000000000000000000000000000000000000000000000000815273ffffffffffffffffffffffffffffffffffffffff6024351660048201525f816024818373ffffffffffffffffffffffffffffffffffffffff7f0000000000000000000000000000000000000000000000000000000000000000165af180156125785761274e575b506126b55f9a73ffffffffffffffffffffffffffffffffffffffff7f000000000000000000000000000000000000000000000000000000000000000016602435612bfe565b6040517f11da60b400000000000000000000000000000000000000000000000000000000815260a051816004815f73ffffffffffffffffffffffffffffffffffffffff7f0000000000000000000000000000000000000000000000000000000000000000165af180156125785761272d575b5061233b565b6127479060a0513d60a0511161257157612562818361177b565b505f612727565b5f6127589161177b565b5f612670565b61277f915060403d8111612786575b612777818361177b565b810190612eaf565b505f61232c565b503d61276d565b5f6127979161177b565b5f612275565b73ffffffffffffffffffffffffffffffffffffffff8451165f52600760a0515260405f2080547fffffffffffffffffffffffffffffffffffffffffffffffffffffffffffffffff81146116cc576001019055611f1b565b5060028a1015611f16565b7f4e487b71000000000000000000000000000000000000000000000000000000005f52602160045260245ffd5b5f611d24565b5050505060019061239f565b5060019061239f565b5060c4351560c435611ba6575073ffffffffffffffffffffffffffffffffffffffff60a051820151168961022c5773ffffffffffffffffffffffffffffffffffffffff602435161415611ba6565b5060c4358015611b9f575073ffffffffffffffffffffffffffffffffffffffff60a051820151168461022c5773ffffffffffffffffffffffffffffffffffffffff604435161415611b9f565b503073ffffffffffffffffffffffffffffffffffffffff60a051612905858c613797565b510151161415611b98565b5060805161291e838a613797565b51511415611b91565b5073ffffffffffffffffffffffffffffffffffffffff8151165f52600360a0515260405f2060a08201515f5260a0515260ff60405f205416611b8a565b505050505050505090507f575e24b400000000000000000000000000000000000000000000000000000000905f905f90565b9096506020813d6020116129c2575b816129b26020938361177b565b8101031261022c5751955f611b1e565b3d91506129a5565b60408483031261022c57602060409182516129e481611743565b863581526129f38388016113f2565b83820152815201930192611a48565b823567ffffffffffffffff811161022c57820186603f8201121561022c57602081013591612a2f83612e75565b612a3c604051918261177b565b838152604083850101891061022c575f6020858196604083970183860137830101528152019201916119e6565b60e08385031261022c576040519060e0820182811067ffffffffffffffff82111761171657604052612a9a846113f2565b8252612aa8602085016113f2565b602083015260408401356040830152606084013560608301526080840135608083015260a084013560a083015260c084013590811515820361022c578260209260c060e0950152815201920191611983565b73ffffffffffffffffffffffffffffffffffffffff82166080517f6cd4c0bed22f08f5822b97937688cd77d783495f654dfa558283cf12d50a09e75f80a37f623513eb000000000000000000000000000000000000000000000000000000005f5260045ffd5b905073ffffffffffffffffffffffffffffffffffffffff8084169160081c1614155f6118d5565b600190438155818101827fffffffffffffffffffffffffffffffffffffffffffffffffffffffffffffff008254161790556080515f526009602052612bce60405f20613043565b6118de565b507f575e24b40000000000000000000000000000000000000000000000000000000092505f91829150565b90919073ffffffffffffffffffffffffffffffffffffffff81169081612cf05750505f80808093855af115612c305750565b7fffffffffffffffffffffffffffffffffffffffffffffffffffffffffffffffe0601f3d011673ffffffffffffffffffffffffffffffffffffffff604051927f90bfb8650000000000000000000000000000000000000000000000000000000084521660048301525f6024830152608060448301528060a00160648301523d60848301523d5f60a484013e7ff4b3b1bc0000000000000000000000000000000000000000000000000000000060c4828401600460a4820152015260e40190fd5b60205f60448194968260409573ffffffffffffffffffffffffffffffffffffffff988751998a947fa9059cbb00000000000000000000000000000000000000000000000000000000865216600485015260248401525af13d15601f3d11600185511416171692828152826020820152015215612d695750565b7fffffffffffffffffffffffffffffffffffffffffffffffffffffffffffffffe0601f3d0116604051917f90bfb86500000000000000000000000000000000000000000000000000000000835260048301527fa9059cbb000000000000000000000000000000000000000000000000000000006024830152608060448301528060a00160648301523d60848301523d5f60a484013e7ff27f64e40000000000000000000000000000000000000000000000000000000060c4828401600460a4820152015260e40190fd5b8054821015612e48575f5260205f2001905f90565b7f4e487b71000000000000000000000000000000000000000000000000000000005f52603260045260245ffd5b67ffffffffffffffff811161171657601f017fffffffffffffffffffffffffffffffffffffffffffffffffffffffffffffffe01660200190565b919082604091031261022c576020825192015190565b907fffffffffffffffffffffffffffffffffffffffffffffffffffffffffffffffe0601f602080948051918291828752018686015e5f8582860101520116010190565b6060612fb8949373ffffffffffffffffffffffffffffffffffffffff612f7b60806101409683612f37826113f2565b16875283612f47602083016113f2565b16602088015262ffffff612f5d604083016117c9565b166040880152612f6e868201611610565b60020b86880152016113f2565b166080840152805160020b60a0840152602081015160020b60c0840152604081015160e08401520151610100820152816101208201520190612ec5565b90565b600f0b7fffffffffffffffffffffffffffffffff8000000000000000000000000000000081146116cc575f0390565b9081602091031261022c575190565b818102929181159184041417156116cc57565b8115613016570490565b7f4e487b71000000000000000000000000000000000000000000000000000000005f52601260045260245ffd5b8054905f815581613052575050565b5f5260205f20908101905b818110613068575050565b5f815560010161305d565b60a06130803660246117d9565b20805f52600960205260405f2090815415613757575f929173ffffffffffffffffffffffffffffffffffffffff7f0000000000000000000000000000000000000000000000000000000000000000169360209460243573ffffffffffffffffffffffffffffffffffffffff81169384821415935b81548110156137175773ffffffffffffffffffffffffffffffffffffffff61311c8284612e33565b90549060031b1c1690875f5260048a5260405f2073ffffffffffffffffffffffffffffffffffffffff83165f528a5260405f2091600483019060ff825460a81c161561370c5760018401546fffffffffffffffffffffffffffffffff8116907f800000000000000000000000000000000000000000000000000000000000000082146116cc578d6040916131e1938351916131b68361175f565b8060801c60020b835260981c60020b838301525f03838201525f60608201526122aa8351928361177b565b03815f8c5af1908115612578575f916136ed575b505f908d5f918060801d9081600f0b915f8312613617575b50600f0b915f8312613520575b505f811361349d575b505f81136133fd575b5083549173ffffffffffffffffffffffffffffffffffffffff8316948b61022c578f93958e968e82145f146133f757835b8a549182821161335c575b505050507fffffffffffffffffffff00ffffffffffffffffffffffffffffffffffffffffff81541690558061333f575b50806132da575b5060407f6ae5059f05e12abe6c13bd363c17f830dc5ac898dfb920d3aa5d4f489c7ff14d915f60019754918351928352820152a35b016130f4565b9250506044359173ffffffffffffffffffffffffffffffffffffffff8316830361022c5760408d5f6001976133358f9795867f6ae5059f05e12abe6c13bd363c17f830dc5ac898dfb920d3aa5d4f489c7ff14d975088613805565b975050915061329f565b915092508861022c578a926133568e928985613805565b5f613298565b61ffff61337f60ff61337461271096613386966116bf565b9360a01c168b6137ab565b1690612ff9565b049081613395575b8080613268565b9091929c505f526005845260405f206133af8282546117bc565b905581545f9c9073ffffffffffffffffffffffffffffffffffffffff168e036133e557906133dc916116bf565b905b5f8061338e565b9192906133f1916116bf565b916133de565b8461325d565b90508060443573ffffffffffffffffffffffffffffffffffffffff8116810361022c578a3b1561022c576040517f0b0d9c0900000000000000000000000000000000000000000000000000000000815273ffffffffffffffffffffffffffffffffffffffff91909116600482015230602482015260448101919091525f81606481838e5af18015612578571561322c575f6134979161177b565b5f61322c565b9250828b61022c578a3b1561022c576040517f0b0d9c0900000000000000000000000000000000000000000000000000000000815273ffffffffffffffffffffffffffffffffffffffff8b16600482015230602482015260448101919091525f81606481838f5af180156125785715613223575f61351a9161177b565b5f613223565b61352983612fbb565b600f0b6044359073ffffffffffffffffffffffffffffffffffffffff82169182810361022c578e3b1561022c575f8f6024829560405196879384927fa584119400000000000000000000000000000000000000000000000000000000845260048401525af1908115612578578f91936135a794613607575b50612bfe565b5f818d6004604051809481937f11da60b40000000000000000000000000000000000000000000000000000000083525af18015612578576135e9575b5061321a565b816135ff92903d1061257157612562818361177b565b508f5f6135e3565b5f6136119161177b565b5f6135a1565b613622919350612fbb565b600f0b9b61022c578a3b1561022c578f915f808f60248f9160405194859384927fa584119400000000000000000000000000000000000000000000000000000000845260048401525af18015612578576136dd575b506136845f9d8d8d612bfe565b5f838d6004604051809481937f11da60b40000000000000000000000000000000000000000000000000000000083525af18015612578571561320d576136d690843d861161257157612562818361177b565b505f61320d565b5f6136e79161177b565b5f613677565b613705915060403d811161278657612777818361177b565b505f6131f5565b5050600191506132d4565b50505050505091600991925f525261373160405f20613043565b7fb47b2fb100000000000000000000000000000000000000000000000000000000905f90565b50507fb47b2fb100000000000000000000000000000000000000000000000000000000905f90565b67ffffffffffffffff81116117165760051b60200190565b8051821015612e485760209160051b010190565b6137d79073ffffffffffffffffffffffffffffffffffffffff165f52600260205260405f205442111590565b6138005760028110156127ff576001146137f45761ffff5f541690565b61ffff5f5460101c1690565b505f90565b90919073ffffffffffffffffffffffffffffffffffffffff83166138bf575f809350809281925af13d156138ba573d61383d81612e75565b9061384b604051928361177b565b81525f60203d92013e5b1561385c57565b60646040517f08c379a000000000000000000000000000000000000000000000000000000000815260206004820152601360248201527f455448207472616e73666572206661696c6564000000000000000000000000006044820152fd5b613855565b6138c892612bfe565b565b9060020b9060020b01907fffffffffffffffffffffffffffffffffffffffffffffffffffffffffff8000008212627fffff8313176116cc57565b9073ffffffffffffffffffffffffffffffffffffffff8091169116039073ffffffffffffffffffffffffffffffffffffffff82116116cc57565b94929390606086015160020b945f14613a125773ffffffffffffffffffffffffffffffffffffffff6020613973878394613b53565b97015116911603613a075783928460020b0393627fffff85137fffffffffffffffffffffffffffffffffffffffffffffffffffffffffff8000008612176116cc576fffffffffffffffffffffffffffffffff9173ffffffffffffffffffffffffffffffffffffffff6139f9613a03936139f46139ee8a613c34565b91613c34565b613904565b169060601b61300c565b1690565b505f92508291508190565b73ffffffffffffffffffffffffffffffffffffffff613a3686829398959798613b53565b935116911603613a0757613a03613a68613a61866fffffffffffffffffffffffffffffffff946138ca565b95866138ca565b9373ffffffffffffffffffffffffffffffffffffffff613ab5613a8a88613c34565b613aaf613aa3613a998a613c34565b9585841690612ff9565b60601c84861690612ff9565b93613904565b169061300c565b73ffffffffffffffffffffffffffffffffffffffff1680613adc57504790565b6020602491604051928380927f70a082310000000000000000000000000000000000000000000000000000000082523060048301525afa908115612578575f91613b24575090565b90506020813d602011613b4b575b81613b3f6020938361177b565b8101031261022c575190565b3d9150613b32565b60020b9060020b908115613016577fffffffffffffffffffffffffffffffffffffffffffffffffffffffffffffffff82147fffffffffffffffffffffffffffffffffffffffffffffffffffffffffff8000008214166116cc5781810590825f82129182613c25575b5050613bd4575b60020b028060020b9081036116cc5790565b60020b7fffffffffffffffffffffffffffffffffffffffffffffffffffffffffff80000081146116cc577fffffffffffffffffffffffffffffffffffffffffffffffffffffffffffffffff01613bc2565b0760020b15159050825f613bbb565b60020b908160ff1d82810118620d89e88111613f7a5763ffffffff9192600182167001fffcb933bd6fad37aa2d162d1a59400102700100000000000000000000000000000000189160028116613f5e575b60048116613f42575b60088116613f26575b60108116613f0a575b60208116613eee575b60408116613ed2575b60808116613eb6575b6101008116613e9a575b6102008116613e7e575b6104008116613e62575b6108008116613e46575b6110008116613e2a575b6120008116613e0e575b6140008116613df2575b6180008116613dd6575b620100008116613dba575b620200008116613d9f575b620400008116613d84575b6208000016613d6b575b5f12613d44575b0160201c90565b7fffffffffffffffffffffffffffffffffffffffffffffffffffffffffffffffff04613d3d565b6b048a170391f7dc42444e8fa290910260801c90613d36565b6d2216e584f5fa1ea926041bedfe9890920260801c91613d2c565b916e5d6af8dedb81196699c329225ee6040260801c91613d21565b916f09aa508b5b7a84e1c677de54f3e99bc90260801c91613d16565b916f31be135f97d08fd981231505542fcfa60260801c91613d0b565b916f70d869a156d2a1b890bb3df62baf32f70260801c91613d01565b916fa9f746462d870fdf8a65dc1f90e061e50260801c91613cf7565b916fd097f3bdfd2022b8845ad8f792aa58250260801c91613ced565b916fe7159475a2c29b7443b29c7fa6e889d90260801c91613ce3565b916ff3392b0822b70005940c7a398e4b70f30260801c91613cd9565b916ff987a7253ac413176f2b074cf7815e540260801c91613ccf565b916ffcbe86c7900a88aedcffc83b479aa3a40260801c91613cc5565b916ffe5dee046a99a2a811c461f1969c30530260801c91613cbb565b916fff2ea16466c96a3843ec78b326b528610260801c91613cb2565b916fff973b41fa98c081472e6896dfb254c00260801c91613ca9565b916fffcb9843d60f6159c9db58835c9266440260801c91613ca0565b916fffe5caca7e10e4e61c3624eaa0941cd00260801c91613c97565b916ffff2e50f5f656932ef12357cf3c7fdcc0260801c91613c8e565b916ffff97272373d413259a46990580e213a0260801c91613c85565b827f8b86327a000000000000000000000000000000000000000000000000000000005f5260045260245ffdfea26469706673582212207bd135c3e27682d1219fb05a87a3e0ce45ef594168cbe625b290697ad052637764736f6c634300081a0033","linkReferences":{}},"methodIdentifiers":{"BPS_DENOMINATOR()":"e1a45218","MAX_FEE_BPS()":"d55be8c6","PERMIT2()":"6afdd850","addMembership(address,uint256)":"f050e4d3","afterAddLiquidity(address,(address,address,uint24,int24,address),(int24,int24,int256,bytes32),int256,int256,bytes)":"9f063efc","afterDonate(address,(address,address,uint24,int24,address),uint256,uint256,bytes)":"e1b4af69","afterInitialize(address,(address,address,uint24,int24,address),uint160,int24)":"6fe7e6eb","afterRemoveLiquidity(address,(address,address,uint24,int24,address),(int24,int24,int256,bytes32),int256,int256,bytes)":"6c2bbe7e","afterSwap(address,(address,address,uint24,int24,address),(bool,int256,uint160),int256,bytes)":"b47b2fb1","beforeAddLiquidity(address,(address,address,uint24,int24,address),(int24,int24,int256,bytes32),bytes)":"259982e5","beforeDonate(address,(address,address,uint24,int24,address),uint256,uint256,bytes)":"b6a8b0fa","beforeInitialize(address,(address,address,uint24,int24,address),uint160)":"dc98354e","beforeRemoveLiquidity(address,(address,address,uint24,int24,address),(int24,int24,int256,bytes32),bytes)":"21d0ee70","beforeSwap(address,(address,address,uint24,int24,address),(bool,int256,uint160),bytes)":"575e24b4","botKillCount(address)":"f47fe441","dualSidedFeeBps()":"0b94a5a9","getHookPermissions()":"c4e833ce","isMember(address)":"a230c524","isPermitUsed(address,uint256)":"6c671fcb","lifetimeEarnings(address,address)":"fe91a617","membershipExpiry(address)":"ea4bbaf4","owner()":"8da5cb5b","permit2()":"12261ee7","poolManager()":"dc4c90d3","protocolFees(address)":"dcf844a7","revokeMembership(address)":"c5ae086a","setFees(uint16,uint16)":"9ef833d4","setTreasury(address)":"f0f44260","singleSidedFeeBps()":"bd9a4ab2","transferOwnership(address)":"f2fde38b","treasury()":"61d027b3","withdrawFees(address,uint256)":"ad3b1b47"},"id":96}